:100000000C9434000C943E000C943E000C943E0082
:100010000C943E000C943E000C943E000C943E0068
:100020000C943E000C943E000C943E000C943E0058
:100030000C943E000C943E000C943E000C943E0048
:100040000C943E000C943E000C943E000C943E0038
:100050000C943E000C943E000C943E000C943E0028
:100060000C943E000C943E0011241FBECFEFD8E04C
:10007000DEBFCDBF0E9405010C946B030C94000001
:10008000CF93DF931F92CDB7DEB7898381EB90E0EA
:100090002981FC0120830F90DF91CF910895CF93A8
:1000A000DF9300D01F92CDB7DEB78B838B81882F73
:1000B00090E083309105C9F08430910534F48130AB
:1000C000910549F0029761F01FC08430910591F0CD
:1000D0000597A9F019C081E090E09A83898317C041
:1000E00088E090E09A83898312C080E490E09A834C
:1000F00089830DC080E091E09A83898308C080E005
:1001000094E09A83898303C01A821982000089814E
:100110009A810F900F900F90DF91CF910895CF9318
:10012000DF93CDB7DEB72C970FB6F894DEBF0FBEC6
:10013000CDBF69837A838B839C832D833E834F83DA
:1001400058878D819E81AF81B8859C01AD01569500
:1001500047953795279589819A81AB81BC81820F1C
:10016000931FA41FB51F2D813E814F815885BC016F
:10017000CD010E944903DA01C901BC01CD012C96D1
:100180000FB6F894DEBF0FBECDBFDF91CF910895BB
:100190000F931F93CF93DF93CDB7DEB728970FB69A
:1001A000F894DEBF0FBECDBF69837A838B839C83B7
:1001B0002D833E834F83588703EB10E089819A811A
:1001C000AB81BC819C01AD01220F331F441F551F21
:1001D0008D819E81AF81B885BC01CD010E948F00C9
:1001E000DC01CB018150F801808380EB90E022E4B8
:1001F000FC01208328960FB6F894DEBF0FBECDBF5A
:10020000DF91CF911F910F910895CF93DF93CDB7D9
:10021000DEB7A1970FB6F894DEBF0FBECDBF83E067
:10022000898384E290E024E230E0F90120812860B3
:10023000FC01208389810E94400089810E944F0037
:10024000CC01A0E0B0E09C01AD0160E074E284EF7D
:1002500090E00E948F00DC01CB018A839B83AC83FA
:10026000BD838A819B81AC81BD819C01AD0168EB1E
:1002700071E080E090E00E94C80080E090E0A8E497
:10028000B3E48E839F83A887B98720E030E04AE7F4
:1002900055E46E817F81888599850E94B402DC01D6
:1002A000CB018A879B87AC87BD8720E030E040E8A0
:1002B0005FE36A857B858C859D850E942E0288235D
:1002C0002CF481E090E09F878E873FC020E03FEFD5
:1002D0004FE757E46A857B858C859D850E94AF0238
:1002E00018164CF520E030E040E251E46E817F8149
:1002F000888599850E94B402DC01CB01BC01CD0147
:100300000E943302DC01CB019F878E870FC080E9FA
:1003100091E0998B888B888999890197F1F7998B5E
:10032000888B8E859F8501979F878E878E859F8579
:10033000892B69F714C06A857B858C859D850E9411
:100340003302DC01CB019F878E878E859F859B8B37
:100350008A8B8A899B890197F1F79B8B8A8B8A818B
:100360009B81AC81BD819C01AD0160E773E080E0C1
:1003700090E00E94C80080E090E0A8E4B3E48C8B99
:100380009D8BAE8BBF8B20E030E04AE755E46C8953
:100390007D898E899F890E94B402DC01CB01888F00
:1003A000998FAA8FBB8F20E030E040E85FE3688D33
:1003B000798D8A8D9B8D0E942E0288232CF481E0FA
:1003C00090E09D8F8C8F3FC020E03FEF4FE757E4D8
:1003D000688D798D8A8D9B8D0E94AF0218164CF521
:1003E00020E030E040E251E46C897D898E899F896C
:1003F0000E94B402DC01CB01BC01CD010E9433029A
:10040000DC01CB019D8F8C8F0FC080E991E09F8F25
:100410008E8F8E8D9F8D0197F1F79F8F8E8F8C8D94
:100420009D8D01979D8F8C8F8C8D9D8D892B69F76C
:1004300014C0688D798D8A8D9B8D0E943302DC01FA
:10044000CB019D8F8C8F8C8D9D8D99A388A388A1C6
:1004500099A10197F1F799A388A303CF0E946202A3
:1004600008F481E008950E948E0288F09F5798F06A
:10047000B92F9927B751B0F0E1F0660F771F881FA9
:10048000991F1AF0BA95C9F714C0B13091F00E94C3
:10049000A802B1E008950C94A802672F782F88274E
:1004A000B85F39F0B93FCCF3869577956795B395EA
:1004B000D9F73EF490958095709561957F4F8F4F59
:1004C0009F4F0895990F0008550FAA0BE0E8FEEF23
:1004D00016161706E807F907C0F012161306E40708
:1004E000F50798F0621B730B840B950B39F40A2601
:1004F00061F0232B242B252B21F408950A2609F4DF
:10050000A140A6958FEF811D811D089557FD90583C
:10051000440F551F59F05F3F71F04795880F97FBC7
:10052000991F61F09F3F79F0879508951216130681
:100530001406551FF2CF4695F1DF08C016161706B0
:100540001806991FF1CF86957105610508940895E5
:10055000E894BB2766277727CB0197F908950E9477
:10056000620208F48FEF08950E94C7020C943803CA
:100570000E942A0338F00E94310320F0952311F0E5
:100580000C9421030C94270311240C94A9020E94BB
:10059000860270F3959FC1F3950F50E0551F629F3F
:1005A000F001729FBB27F00DB11D639FAA27F00DCC
:1005B000B11DAA1F649F6627B00DA11D661F829FF3
:1005C0002227B00DA11D621F739FB00DA11D621FD8
:1005D000839FA00D611D221F749F3327A00D611DF5
:1005E000231F849F600D211D822F762F6A2F1124D7
:1005F0009F5750409AF0F1F088234AF0EE0FFF1F0A
:10060000BB1F661F771F881F91505040A9F79E3F60
:10061000510580F00C9421030C94A9025F3FE4F390
:10062000983ED4F3869577956795B795F795E795B6
:100630009F5FC1F7FE2B880F911D9695879597F9BF
:10064000089597F99F6780E870E060E008959FEF54
:1006500080EC089500240A94161617061806090659
:10066000089500240A941216130614060506089528
:10067000092E0394000C11F4882352F0BB0F40F4B0
:10068000BF2B11F460FF04C06F5F7F4F8F4F9F4FF0
:100690000895A1E21A2EAA1BBB1BFD010DC0AA1FC3
:1006A000BB1FEE1FFF1FA217B307E407F50720F0DB
:1006B000A21BB30BE40BF50B661F771F881F991F56
:1006C0001A9469F760957095809590959B01AC019F
:0A06D000BD01CF010895F894FFCF9B
:00000001FF
