S0100000554152545F4C45442E73726563A4
S11300000C946D000C9477000C9477000C9477009A
S11300100C9477000C9477000C9477000C94770080
S11300200C9477000C9477000C9477000C94770070
S11300300C9477000C9477000C9477000C94770060
S11300400C9477000C9477000C9477000C94770050
S11300500C9477000C9477000C9477000C94770040
S11300600C9477000C947700B6009A009A009A00DA
S11300709A009A00AC009A009A009A009A009A009A
S11300809A009A009A009A009A00A7009A009A008F
S11300909A009A009A009A00B1009A009A009A0075
S11300A09A009A009A009A00B6009A009A009A0060
S11300B09A009A00AC009A009A009A009A009A005A
S11300C09A009A009A009A009A00A7009A009A004F
S11300D09A009A009A009A00B10011241FBECFEF33
S11300E0D8E0DEBFCDBF0E9492000C94C3000C94F4
S11300F00000E0ECF0E080818823ECF78091C600FA
S1130100089587E690E09093C5008093C400E1ECE5
S1130110F0E0808188618083E2ECF0E08081886097
S11301208083089584B1876084B985B1887F85B957
S11301300E9481000E94790090E0FC01E154F109E1
S1130140E933F105B8F7EC5CFF4F0C94BD0085B1C1
S1130150887F85B9289AEECF85B1887F85B9299A99
S1130160E9CF85B1887F85B92A9AE4CF85B1887FA4
S113017085B985B1876085B9DDCFEE0FFF1F059086
S10D0180F491E02D0994F894FFCFE8
S9030000FC
