:100000000C9434000C9451000C9451000C94510049
:100010000C9451000C9451000C9451000C9451001C
:100020000C9451000C9451000C9451000C9451000C
:100030000C9451000C9451000C9410040C94510039
:100040000C9451000C9451000C9451000C945100EC
:100050000C9451000C9451000C9451000C945100DC
:100060000C9451000C94510011241FBECFEFD8E026
:10007000DEBFCDBF11E0A0E0B1E0E4E1FAE002C0F4
:1000800005900D92A630B107D9F721E0A6E0B1E0C6
:1000900001C01D92AA35B207E1F70E9453000C94EB
:1000A00008050C940000CF93DF9300D000D000D05F
:1000B000CDB7DEB70E94C90286E291E00E941F031D
:1000C00080914401909145010F9711F40E943E02E6
:1000D0008091040190910501019719F51A82198206
:1000E00010C089819A81880F991F8A5D9E4FFC01FB
:1000F000808191810E94A60189819A8101969A83CB
:10010000898380914401909145019C012F5F3F4F6D
:1001100089819A818217930720F31092050110922A
:10012000040189E290E0FC018081882F90E08071D9
:10013000992721E0892B09F020E0822F90E090930D
:1001400053018093520189E290E0FC018081882F65
:1001500090E08072992721E0892B09F020E0822F1E
:1001600090E0909355018093540189E290E0FC0166
:100170008081882F90E08074992721E0892B09F0F5
:1001800020E0822F90E0909357018093560189E2FE
:1001900090E0FC0180818095881F8827881F882F28
:1001A00090E090935901809358011C821B8209C0F2
:1001B0008B819C810E946F038B819C8101969C8323
:1001C0008B838B819C8104979CF380911E0190917D
:1001D0001F01019749F48091160190911701892B15
:1001E00019F481E090E002C080E090E09093490132
:1001F000809348018091200190912101019749F459
:100200008091180190911901892B19F481E090E0F7
:1002100002C080E090E090934B0180934A0180916E
:10022000220190912301019749F480911A01909144
:100230001B01892B19F481E090E002C080E090E07E
:1002400090934D0180934C01809124019091250160
:10025000019749F480911C0190911D01892B19F49B
:1002600081E090E002C080E090E090934F018093A5
:100270004E018091480190914901892B99F4809118
:100280004A0190914B01892B69F480914C01909126
:100290004D01892B39F480914E0190914F01892BAA
:1002A00009F453C08091460190914701880F991F2E
:1002B0008A5D9E4FFC0180819181880F991F825E2B
:1002C0009E4FFC0180819181019741F5809146010B
:1002D00090914701019690934701809346012091A8
:1002E0004601309147018091440190914501821768
:1002F0009307B0F481E090E09093050180930401AE
:10030000109247011092460180914401909145015D
:100310000196909345018093440102C00E94FC0124
:100320001E821D820EC08D819E81880F991F825E64
:100330009E4FFC01118210828D819E8101969E83C9
:100340008D838D819E81049774F3BACECF93DF9312
:1003500000D0CDB7DEB79A83898389819A818130B5
:100360009105B1F0823091051CF4892B39F02EC033
:1003700082309105B9F00397F9F028C085E290E04A
:1003800025E230E0F90120812160FC0120831EC0BC
:1003900085E290E025E230E0F90120812260FC0155
:1003A000208314C085E290E025E230E0F90120814D
:1003B0002460FC0120830AC085E290E025E230E061
:1003C000F90120812860FC012083000084EF91E086
:1003D0000E942F0485E290E025E230E0F9012081BF
:1003E000207FFC01208388EC90E00E942F040F9076
:1003F0000F90DF91CF910895CF93DF9300D0CDB7C9
:10040000DEB785E290E02FE0FC01208384EF91E0ED
:100410000E942F0485E290E0FC01108284EF91E0BD
:100420000E942F0481E090E09093050180930401E5
:10043000109247011092460110924501109244011A
:100440001A8219820EC089819A81880F991F825E53
:100450009E4FFC011182108289819A8101969A83B4
:10046000898389819A81049774F386E291E00E94DE
:100470001F030F900F90DF91CF910895CF93DF93DB
:1004800000D000D0CDB7DEB71A8219823BC08CE213
:1004900091E00E942F0485E290E028E0FC01208397
:1004A0008CE291E00E942F0485E290E024E0FC01C0
:1004B00020838CE291E00E942F0485E290E022E00C
:1004C000FC0120838CE291E00E942F0485E290E001
:1004D00021E0FC0120838CE291E00E942F0485E260
:1004E00090E022E0FC0120838CE291E00E942F0446
:1004F00085E290E024E0FC01208389819A810196C5
:100500009A83898389819A8103970CF28CE291E026
:100510000E942F0485E290E028E0FC0120838CE219
:1005200091E00E942F0485E290E0FC01108281E0BE
:1005300090E090930501809304011092470110927E
:10054000460110924501109244011C821B820EC08C
:100550008B819C81880F991F825E9E4FFC011182C6
:1005600010828B819C8101969C838B838B819C81E3
:10057000049774F386E291E00E941F0388EE93E0F3
:100580000E942F040F900F900F900F90DF91CF914A
:100590000895CF93DF93CDB7DEB78BE290E02BE2E7
:1005A00030E0F9012081206FFC01208384E290E09B
:1005B00024E230E0F90120812F60FC0120838AE2EF
:1005C00090E02AE230E0F90120812F70FC012083C5
:1005D00085E290E025E230E0F9012081207FFC01F6
:1005E00020838CE790E020E4FC0120838AE790E000
:1005F00027E8FC01208384E490E024E430E0F90162
:1006000020812260FC01208387E490E02AEFFC0136
:1006100020838EE690E02EE630E0F9012081226012
:10062000FC012083789485E490E025E430E0F90132
:1006300020812360FC012083DF91CF9108950F93E7
:100640001F93CF93DF9300D000D0CDB7DEB79C834C
:100650008B838AE790E02AE730E0F901208120646B
:10066000FC01208300008AE790E0FC018081882F54
:1006700090E080749927892BB1F788E790E0FC011E
:10068000808191810E949A041A8219821BC08981FB
:100690009A81880F991F2B813C818901080F191FAE
:1006A0000E94950483709078992324F401978C6FAD
:1006B0009F6F0196F8019183808389819A810196C9
:1006C0009A83898389819A810F970CF30F900F90F9
:1006D0000F900F90DF91CF911F910F910895CF93BD
:1006E000DF9300D0CDB7DEB79A83898389819A8161
:1006F000880F991F8E5A9E4FFC0180819181892B12
:1007000009F44CC089819A81880F991F8A5F9E4F96
:10071000FC01808191819C012F5F3F4F89819A81EB
:10072000880F991F8A5F9E4FFC0131832083898146
:100730009A81880F991F8A5F9E4FFC018081918169
:100740004F9708F468C089819A81880F991F8A5E43
:100750009E4FFC0180819181892BB1F489819A811E
:10076000880F991F825E9E4F21E030E0FC013183AB
:10077000208389819A81880F991F8A5E9E4F21E08C
:1007800030E0FC013183208389819A81880F991F91
:100790008A5F9E4FFC01118210823DC089819A813F
:1007A000880F991F825F9E4FFC01808191819C017F
:1007B0002F5F3F4F89819A81880F991F825F9E4FDB
:1007C000FC013183208389819A81880F991F825F80
:1007D0009E4FFC01808191814F97E8F089819A8139
:1007E000880F991F8A5E9E4FFC018081918101973D
:1007F00049F489819A81880F991F8A5E9E4FFC0176
:100800001182108289819A81880F991F825F9E4F81
:10081000FC01118210820F900F90DF91CF9108950B
:100820001F920F9200905F000F9211248F939F935D
:10083000CF93DF93CDB7DEB78091500190915101F6
:1008400001969093510180935001DF91CF919F9138
:100850008F910F9000925F000F901F901895CF938B
:10086000DF9300D0CDB7DEB79A8389831092510110
:100870001092500100002091500130915101898166
:100880009A8128173907B8F30F900F90DF91CF9115
:1008900008958F929F92AF92BF92CF92DF92EF9284
:1008A000FF92CF93DF93EC01688179818A819B81EC
:1008B000611571058105910521F464E279ED8BE5FF
:1008C00097E02DE133EF41E050E00E94A50449019B
:1008D0005A019B01AC01A7EAB1E40E94C4046B0178
:1008E0007C01ACEEB4EFA50194010E94D204DC01BE
:1008F000CB018C0D9D1DAE1DBF1DB7FF03C0019721
:10090000A109B04888839983AA83BB839F77DF912D
:10091000CF91FF90EF90DF90CF90BF90AF909F90DE
:100920008F9008950E944904089580E091E00E940C
:1009300049040895A0E0B0E0809300019093010184
:10094000A0930201B09303010895052E97FB1EF4B6
:1009500000940E94BC0457FD07D00E94D70407FCF6
:1009600003D04EF40C94BC045095409530952195DD
:100970003F4F4F4F5F4F08959095809570956195CB
:100980007F4F8F4F9F4F08950E94F904A59F900DB0
:10099000B49F900DA49F800D911D11240895B7FF61
:1009A0000C94C4040E94C404821B930B0895A1E21A
:1009B0001A2EAA1BBB1BFD010DC0AA1FBB1FEE1FD9
:1009C000FF1FA217B307E407F50720F0A21BB30B24
:1009D000E40BF50B661F771F881F991F1A9469F7A0
:1009E00060957095809590959B01AC01BD01CF01FC
:1009F0000895A29FB001B39FC001A39F700D811DF8
:100A00001124911DB29F700D811D1124911D089517
:040A1000F894FFCF88
:060A1400010000000100DA
:00000001FF
