S012000062746E54586C656452582E7372656343
S11300000C9434000C9446000C9446000C94460066
S11300100C9446000C9446000C9446000C94460044
S11300200C9446000C9446000C9446000C94460034
S11300300C9446000C9446000C9446000C94460024
S11300400C9446000C9446000C9446000C94460014
S11300500C9446000C9446000C9446000C94460004
S11300600C9446000C94460011241FBECFEFD8E038
S1130070DEBFCDBF21E0A0E0B1E001C01D92A032FF
S1130080B207E1F70E94E0000C9426010C940000F2
S11300909C0195B1907F95B92130310551F038F02C
S11300A02230310541F02330310539F00895289A82
S11300B00895299A08952A9A08952B9A089587E60F
S11300C090E09093C5008093C400E1ECF0E080815F
S11300D088618083E2ECF0E0808188608083089509
S11300E08093C600E0ECF0E0808186FFFDCFE0EC79
S11300F0F0E08081806480830895CF93DF93EC01E6
S1130100FC01EE0FFF1FE050FF4F80819181892B8E
S113011051F1FE01EE0FFF1FE85EFE4F80819181D9
S11301200196918380830B9708F43FC0FE01EE0F84
S1130130FF1FE85FFE4F80819181892B69F48C2F2A
S1130140805D0E947000FE01EE0FFF1FE85FFE4F0E
S113015081E090E091838083CC0FDD1FC85EDE4F89
S11301601982188222C0FE01EE0FFF1FE05FFE4FCE
S1130170808191810196918380830B97B0F0FE0179
S1130180EE0FFF1FE85FFE4F80819181019739F4E4
S1130190FE01EE0FFF1FE85FFE4F11821082CC0FAD
S11301A0DD1FC05FDE4F19821882DF91CF91089561
S11301B0E0ECF0E080818823ECF78091C60008959C
S11301C00E945F008BB1806F8BB984B18F6084B95A
S11301D0C0E0D1E011E089B182958F7081278170F0
S11301E08883198289B18295869587708127817069
S11301F08A831B8289B1829586958695837081272F
S113020081708C831D8289B1082E000C990B809516
S11302109095892F881F8827881F8E831F8280E0EE
S113022090E00E947D0081E090E00E947D0082E0E9
S113023090E00E947D0083E090E00E947D000E9497
S1130240D80090E0C0970E944800C5CFF894FFCF33
S9030000FC
