:100000000C9434000C9451000C9451000C94510049
:100010000C9451000C9451000C9451000C9451001C
:100020000C9451000C9451000C9451000C9451000C
:100030000C9451000C9451000C9451000C945100FC
:100040000C9451000C9451000C9451000C945100EC
:100050000C9451000C9451000C9451000C945100DC
:100060000C9451000C94510011241FBECFEFD8E026
:10007000DEBFCDBF11E0A0E0B1E0ECE0FCE102C0EA
:1000800005900D92A630B107D9F721E0A6E0B1E0C6
:1000900001C01D92A035B207E1F70E9453000C94F5
:1000A000040E0C940000CF93DF9300D000D000D05A
:1000B000CDB7DEB70E94290A86E291E00E94B60A17
:1000C0000E94F30A80911E0190911F01019749F44B
:1000D0008091160190911701892B19F481E090E02D
:1000E00002C080E090E090934901809348018091A4
:1000F000200190912101019749F48091180190917C
:100100001901892B19F481E090E002C080E090E0B1
:1001100090934B0180934A01809122019091230199
:10012000019749F480911A0190911B01892B19F4D0
:1001300081E090E002C080E090E090934D018093D8
:100140004C018091240190912501019749F48091FF
:100150001C0190911D01892B19F481E090E002C0EF
:1001600080E090E090934F0180934E018091440194
:1001700090914501409711F40E941B048091040165
:1001800090910501019719F51A82198210C0898191
:100190009A81880F991F8A5D9E4FFC018081918111
:1001A0000E94B30189819A8101969A838983809103
:1001B0004401909145019C012F5F3F4F89819A81B5
:1001C0008217930720F31092050110920401809189
:1001D000480190914901892B31F080914A01909119
:1001E0004B01892BE1F58091480190914901892BC0
:1001F00031F080914C0190914D01892B81F58091D6
:10020000480190914901892B31F080914E019091E4
:100210004F01892B21F580914A0190914B01892B47
:1002200031F080914C0190914D01892BC1F4809166
:100230004A0190914B01892B31F080914E019091B0
:100240004F01892B61F480914C0190914D01892BD4
:1002500041F080914E0190914F01892B11F00E9445
:10026000F4028091480190914901892B99F4809181
:100270004A0190914B01892B69F480914C01909136
:100280004D01892B39F480914E0190914F01892BBA
:1002900009F468C08091460190914701880F991F29
:1002A0008A5D9E4FFC0180819181880F991F825E3B
:1002B0009E4FFC01808191810197E9F58091460173
:1002C00090914701019690934701809346012091B8
:1002D0004601309147018091440190914501821778
:1002E000930740F581E090E090930501809304012D
:1002F000109247011092460180914401909145016E
:10030000019690934501809344011C821B820EC08C
:100310008B819C81880F991F825E9E4FFC01118208
:1003200010828B819C8101969C838B838B819C8125
:10033000049774F302C00E94F4021E821D820EC054
:100340008D819E81880F991F825E9E4FFC011182D4
:1003500010828D819E8101969E838D838D819E81E9
:10036000049774F3ADCECF93DF93CDB7DEB76E971E
:100370000FB6F894DEBF0FBECDBF9E8F8D8F8D8DD3
:100380009E8D81309105B1F0823091051CF4892B4E
:1003900039F02EC082309105B9F00397F9F028C0EA
:1003A00085E290E025E230E0F90120812160FC0146
:1003B00020831EC085E290E025E230E0F901208133
:1003C0002260FC01208314C085E290E025E230E049
:1003D000F90120812460FC0120830AC085E290E0BD
:1003E00025E230E0F90120812860FC012083000033
:1003F0006CE271E088EB91E00E947C0A80E090E082
:10040000AAEFB3E489839A83AB83BC8320E030E016
:100410004AE755E469817A818B819C810E94B00C06
:10042000DC01CB018D839E83AF83B88720E030E071
:1004300040E85FE36D817E818F8198850E942A0C60
:1004400088232CF481E090E09A8789873FC020E0E0
:100450003FEF4FE757E46D817E818F8198850E9441
:10046000AB0C18164CF520E030E040E251E4698115
:100470007A818B819C810E94B00CDC01CB01BC0194
:10048000CD010E942F0CDC01CB019A8789870FC018
:1004900080E991E09C878B878B859C850197F1F79C
:1004A0009C878B8789859A8501979A878987898513
:1004B0009A85892B69F714C06D817E818F8198851B
:1004C0000E942F0CDC01CB019A87898789859A8548
:1004D0009E878D878D859E850197F1F79E878D87F5
:1004E00085E290E025E230E0F9012081207FFC01E7
:1004F000208380E090E0A8E4B3E48F87988BA98BF9
:10050000BA8B20E030E04AE755E46F857889898925
:100510009A890E94B00CDC01CB018B8B9C8BAD8B3C
:10052000BE8B20E030E040E85FE36B897C898D89F9
:100530009E890E942A0C88232CF481E090E0988FF9
:100540008F8B3FC020E03FEF4FE757E46B897C89FA
:100550008D899E890E94AB0C18164CF520E030E086
:1005600040E251E46F85788989899A890E94B00CAC
:10057000DC01CB01BC01CD010E942F0CDC01CB01C1
:10058000988F8F8B0FC080E991E09A8F898F898D2A
:100590009A8D0197F1F79A8F898F8F89988D01979E
:1005A000988F8F8B8F89988D892B69F714C06B89F1
:1005B0007C898D899E890E942F0CDC01CB01988F4C
:1005C0008F8B8F89988D9C8F8B8F8B8D9C8D0197B6
:1005D000F1F79C8F8B8F6E960FB6F894DEBF0FBE2F
:1005E000CDBFDF91CF910895CF93DF93CDB7DEB725
:1005F0006E970FB6F894DEBF0FBECDBF85E290E0D8
:100600002FE0FC01208380E090E0AAEFB3E48B832D
:100610009C83AD83BE8320E030E04AE755E46B81E4
:100620007C818D819E810E94B00CDC01CB018F8387
:100630009887A987BA8720E030E040E85FE36F81C0
:10064000788589859A850E942A0C88232CF481E07C
:1006500090E09C878B873FC020E03FEF4FE757E457
:100660006F81788589859A850E94AB0C18164CF5A8
:1006700020E030E040E251E46B817C818D819E81FD
:100680000E94B00CDC01CB01BC01CD010E942F0CFB
:10069000DC01CB019C878B870FC080E991E09E87AE
:1006A0008D878D859E850197F1F79E878D878B8538
:1006B0009C8501979C878B878B859C85892B69F707
:1006C00014C06F81788589859A850E942F0CDC0182
:1006D000CB019C878B878B859C85988B8F878F859B
:1006E00098890197F1F7988B8F8785E290E0FC015C
:1006F000108280E090E0AAEFB3E4898B9A8BAB8BF9
:10070000BC8B20E030E04AE755E469897A898B891F
:100710009C890E94B00CDC01CB018D8B9E8BAF8B32
:10072000B88F20E030E040E85FE36D897E898F89F3
:10073000988D0E942A0C88232CF481E090E09A8FF7
:10074000898F3FC020E03FEF4FE757E46D897E89F6
:100750008F89988D0E94AB0C18164CF520E030E084
:1007600040E251E469897A898B899C890E94B00CA6
:10077000DC01CB01BC01CD010E942F0CDC01CB01BF
:100780009A8F898F0FC080E991E09C8F8B8F8B8D22
:100790009C8D0197F1F79C8F8B8F898D9A8D019796
:1007A0009A8F898F898D9A8D892B69F714C06D89ED
:1007B0007E898F89988D0E942F0CDC01CB019A8F46
:1007C000898F898D9A8D9E8F8D8F8D8D9E8D0197AE
:1007D000F1F79E8F8D8F81E090E0909305018093DB
:1007E00004011092470110924601109245011092A7
:1007F00044011A8219820EC089819A81880F991F3B
:10080000825E9E4FFC011182108289819A8101963D
:100810009A83898389819A81049774F386E291E0AF
:100820000E94B60A6E960FB6F894DEBF0FBECDBF1B
:10083000DF91CF9108950F931F93CF93DF93CDB79F
:10084000DEB7C258D1090FB6F894DEBF0FBECDBFD8
:100850001A82198271C380E090E0A6E9B3E48D8327
:100860009E83AF83B88720E030E04AE755E46D818E
:100870007E818F8198850E94B00CDC01CB01898735
:100880009A87AB87BC8720E030E040E85FE369856A
:100890007A858B859C850E942A0C88232CF481E024
:1008A00090E09E878D873FC020E03FEF4FE757E401
:1008B00069857A858B859C850E94AB0C18164CF552
:1008C00020E030E040E251E46D817E818F819885A7
:1008D0000E94B00CDC01CB01BC01CD010E942F0CA9
:1008E000DC01CB019E878D870FC080E991E0988B5A
:1008F0008F878F8598890197F1F7988B8F878D85E2
:100900009E8501979E878D878D859E85892B69F7AA
:1009100014C069857A858B859C850E942F0CDC012B
:10092000CB019E878D878D859E859A8B898B898942
:100930009A890197F1F79A8B898B85E290E028E0FC
:10094000FC01208380E090E0A6E9B3E48B8B9C8BD4
:10095000AD8BBE8B20E030E04AE755E46B897C89A3
:100960008D899E890E94B00CDC01CB018F8B988F02
:10097000A98FBA8F20E030E040E85FE36F89788D7F
:10098000898D9A8D0E942A0C88232CF481E090E0B6
:100990009C8F8B8F3FC020E03FEF4FE757E46F897C
:1009A000788D898D9A8D0E94AB0C18164CF520E03D
:1009B00030E040E251E46B897C898D899E890E94F8
:1009C000B00CDC01CB01BC01CD010E942F0CDC017D
:1009D000CB019C8F8B8F0FC080E991E09E8F8D8F14
:1009E0008D8D9E8D0197F1F79E8F8D8F8B8D9C8DB8
:1009F00001979C8F8B8F8B8D9C8D892B69F714C0F1
:100A00006F89788D898D9A8D0E942F0CDC01CB0126
:100A10009C8F8B8F8B8D9C8D98A38F8F8F8D98A1A2
:100A20000197F1F798A38F8F85E290E024E0FC0115
:100A3000208380E090E0A6E9B3E489A39AA3ABA366
:100A4000BCA320E030E04AE755E469A17AA18BA17C
:100A50009CA10E94B00CDC01CB018DA39EA3AFA38F
:100A6000B8A720E030E040E85FE36DA17EA18FA150
:100A700098A50E942A0C88232CF481E090E09AA784
:100A800089A73FC020E03FEF4FE757E46DA17EA16B
:100A90008FA198A50E94AB0C18164CF520E030E011
:100AA00040E251E469A17AA18BA19CA10E94B00C03
:100AB000DC01CB01BC01CD010E942F0CDC01CB017C
:100AC0009AA789A70FC080E991E09CA78BA78BA567
:100AD0009CA50197F1F79CA78BA789A59AA50197DB
:100AE0009AA789A789A59AA5892B69F714C06DA132
:100AF0007EA18FA198A50E942F0CDC01CB019AA7A3
:100B000089A789A59AA59EA78DA78DA59EA50197C2
:100B1000F1F79EA78DA785E290E022E0FC012083FB
:100B200080E090E0A6E9B3E48FA798ABA9ABBAAB9D
:100B300020E030E04AE755E46FA578A989A99AA991
:100B40000E94B00CDC01CB018BAB9CABADABBEAB60
:100B500020E030E040E85FE36BA97CA98DA99EA965
:100B60000E942A0C88232CF481E090E098AF8FAB90
:100B70003FC020E03FEF4FE757E46BA97CA98DA968
:100B80009EA90E94AB0C18164CF520E030E040E224
:100B900051E46FA578A989A99AA90E94B00CDC013B
:100BA000CB01BC01CD010E942F0CDC01CB0198AF21
:100BB0008FAB0FC080E991E09AAF89AF89AD9AAD54
:100BC0000197F1F79AAF89AF8FA998AD019798AFC8
:100BD0008FAB8FA998AD892B69F714C06BA97CA93D
:100BE0008DA99EA90E942F0CDC01CB0198AF8FAB81
:100BF0008FA998AD9CAF8BAF8BAD9CAD0197F1F7F2
:100C00009CAF8BAF85E290E021E0FC01208380E087
:100C100090E0A6E9B3E49E01235C3F4FF901808395
:100C20009183A283B3838E010F5B1F4F20E030E0DE
:100C30004AE755E4CE01CD96FC0160817181828145
:100C400093810E94B00CDC01CB01F8018083918379
:100C5000A283B383CE018F5B9F4F20E030E040E85A
:100C60005FE3FC0160817181828193810E942A0C83
:100C700088234CF4CE018B5B9F4F21E030E0FC01D8
:100C8000318320836CC0CE018F5B9F4F20E03FEF0C
:100C90004FE757E4FC0160817181828193810E945A
:100CA000AB0C18160CF049C020E030E040E251E4F3
:100CB000CE01CD96FC0160817181828193810E9479
:100CC000B00CDC01CB018E010B5B1F4FBC01CD01D1
:100CD0000E942F0CDC01CB01F8019183808324C09A
:100CE000CE01895B9F4F20E931E0FC0131832083F5
:100CF000CE01895B9F4FFC01808191810197F1F7C3
:100D00009E01295B3F4FF90191838083CE018B5B6C
:100D10009F4F9E012B5B3F4FF90120813181215074
:100D20003109FC0131832083CE018B5B9F4FFC0195
:100D300080819181892BA1F62CC08E010B5B1F4F06
:100D4000CE018F5B9F4FFC01608171818281938115
:100D50000E942F0CDC01CB01F80191838083CE012E
:100D6000875B9F4F9E012B5B3F4FF90120813181B3
:100D7000FC0131832083CE01875B9F4FFC01808182
:100D800091810197F1F79E01275B3F4FF901918314
:100D9000808385E290E022E0FC0120839E01255BB8
:100DA0003F4F80E090E0A6E9B3E4F90180839183AE
:100DB000A283B3838E01015B1F4FCE01855B9F4FE2
:100DC00020E030E04AE755E4FC01608171818281D6
:100DD00093810E94B00CDC01CB01F80180839183E8
:100DE000A283B383CE01815B9F4F20E030E040E8D7
:100DF0005FE3FC0160817181828193810E942A0CF2
:100E000088234CF4CE018D5A9F4F21E030E0FC0145
:100E1000318320836DC0CE01815B9F4F20E03FEF87
:100E20004FE757E4FC0160817181828193810E94C8
:100E3000AB0C18160CF04AC0CE01855B9F4F20E02A
:100E400030E040E251E4FC01608171818281938154
:100E50000E94B00CDC01CB018E010D5A1F4FBC016A
:100E6000CD010E942F0CDC01CB01F801918380831E
:100E700024C0CE018B5A9F4F20E931E0FC01318321
:100E80002083CE018B5A9F4FFC0180819181019775
:100E9000F1F79E012B5A3F4FF90191838083CE01D8
:100EA0008D5A9F4F9E012D5A3F4FF901208131816C
:100EB00021503109FC0131832083CE018D5A9F4F8F
:100EC000FC0180819181892BA1F62CC08E010D5AE5
:100ED0001F4FCE01815B9F4FFC0160817181828138
:100EE00093810E942F0CDC01CB01F8019183808358
:100EF000CE01895A9F4F9E012D5A3F4FF901208103
:100F00003181FC0131832083CE01895A9F4FFC013E
:100F1000808191810197F1F79E01295A3F4FF90194
:100F20009183808385E290E024E0FC012083898125
:100F30009A8101969A83898389819A8103970CF417
:100F40008ACC9E01275A3F4F80E090E0A6E9B3E4A7
:100F5000F90180839183A283B3838E01035A1F4FCB
:100F6000CE01875A9F4F20E030E04AE755E4FC016C
:100F700060817181828193810E94B00CDC01CB0180
:100F8000F80180839183A283B383CE01835A9F4F5C
:100F900020E030E040E85FE3FC0160817181828104
:100FA00093810E942A0C88234CF4CE018F599F4FC5
:100FB00021E030E0FC01318320836DC0CE01835AF3
:100FC0009F4F20E03FEF4FE757E4FC0160817181C4
:100FD000828193810E94AB0C18160CF04AC0CE019E
:100FE000875A9F4F20E030E040E251E4FC016081ED
:100FF0007181828193810E94B00CDC01CB018E0152
:101000000F591F4FBC01CD010E942F0CDC01CB01F9
:10101000F8019183808324C0CE018D599F4F20E930
:1010200031E0FC0131832083CE018D599F4FFC01BB
:10103000808191810197F1F79E012D593F4FF90170
:1010400091838083CE018F599F4F9E012F593F4F2F
:10105000F9012081318121503109FC013183208344
:10106000CE018F599F4FFC0180819181892BA1F680
:101070002CC08E010F591F4FCE01835A9F4FFC0188
:1010800060817181828193810E942F0CDC01CB01F0
:10109000F80191838083CE018B599F4F9E012F5978
:1010A0003F4FF90120813181FC0131832083CE0142
:1010B0008B599F4FFC01808191810197F1F79E012F
:1010C0002B593F4FF9019183808385E290E028E01E
:1010D000FC0120839E0129593F4F80E090E0A6E962
:1010E000B3E4F90180839183A283B3838E01055910
:1010F0001F4FCE0189599F4F20E030E04AE755E469
:10110000FC0160817181828193810E94B00CDC01BD
:10111000CB01F80180839183A283B383CE018559EB
:101120009F4F20E030E040E85FE3FC016081718187
:10113000828193810E942A0C88234CF4CE0181592C
:101140009F4F21E030E0FC01318320836DC0CE0150
:1011500085599F4F20E03FEF4FE757E4FC01608146
:101160007181828193810E94AB0C18160CF04AC0E9
:10117000CE0189599F4F20E030E040E251E4FC016C
:1011800060817181828193810E94B00CDC01CB016E
:101190008E0101591F4FBC01CD010E942F0CDC01B3
:1011A000CB01F8019183808324C0CE018F589F4FDB
:1011B00020E931E0FC0131832083CE018F589F4F1D
:1011C000FC01808191810197F1F79E012F583F4FDB
:1011D000F90191838083CE0181599F4F9E0121594E
:1011E0003F4FF9012081318121503109FC013183C8
:1011F0002083CE0181599F4FFC0180819181892BF1
:10120000A1F62CC08E0101591F4FCE0185599F4F69
:10121000FC0160817181828193810E942F0CDC012D
:10122000CB01F80191838083CE018D589F4F9E01A1
:1012300021593F4FF90120813181FC013183208305
:10124000CE018D589F4FFC01808191810197F1F76C
:101250009E012D583F4FF9019183808385E290E0F4
:10126000FC01108281E090E09093050180930401DD
:1012700010924701109246011092450110924401CC
:101280001C821B820EC08B819C81880F991F825EFD
:101290009E4FFC01118210828B819C8101969C8360
:1012A0008B838B819C81049774F386E291E00E948A
:1012B000B60A9E012B583F4F80E090E0AAE7B4E4C5
:1012C000F90180839183A283B3838E0107581F4F56
:1012D000CE018B589F4F20E030E04AE755E4FC01F7
:1012E00060817181828193810E94B00CDC01CB010D
:1012F000F80180839183A283B383CE0187589F4FE7
:1013000020E030E040E85FE3FC0160817181828190
:1013100093810E942A0C88234CF4CE0183589F4F5E
:1013200021E030E0FC01318320836DC0CE0187587D
:101330009F4F20E03FEF4FE757E4FC016081718150
:10134000828193810E94AB0C18160CF04AC0CE012A
:101350008B589F4F20E030E040E251E4FC01608177
:101360007181828193810E94B00CDC01CB018E01DE
:1013700003581F4FBC01CD010E942F0CDC01CB0193
:10138000F8019183808324C0CE0181589F4F20E9CA
:1013900031E0FC0131832083CE0181589F4FFC0155
:1013A000808191810197F1F79E0121583F4FF9010A
:1013B00091838083CE0183589F4F9E0123583F4FD6
:1013C000F9012081318121503109FC0131832083D1
:1013D000CE0183589F4FFC0180819181892BA1F61A
:1013E0002CC08E0103581F4FCE0187589F4FFC0120
:1013F00060817181828193810E942F0CDC01CB017D
:10140000F80191838083CE018F579F4F9E0123580F
:101410003F4FF90120813181FC0131832083CE01CE
:101420008F579F4FFC01808191810197F1F79E01B9
:101430002F573F4FF90191838083CE57DF4F0FB66F
:10144000F894DEBF0FBECDBFDF91CF911F910F91FA
:101450000895CF93DF93CDB7DEB78BE290E02BE218
:1014600030E0F9012081286BFC01208384E290E0C8
:1014700024E230E0F90120812F60FC0120838AE220
:1014800090E02AE230E0F90120812774FC012083FA
:101490008AE290E02AE230E0F90120812064FC0138
:1014A000208385E290E025E230E0F9012081207F71
:1014B000FC01208381EB90E021EB30E0F9012081F9
:1014C0002160FC01208382EB90E0FC01108284E427
:1014D00090E024E430E0F90120812264FC012083C3
:1014E00084E490E024E430E0F90120812660FC01EE
:1014F0002083DF91CF9108950F931F93CF93DF93B4
:10150000CDB7DEB728970FB6F894DEBF0FBECDBFBC
:101510009A8389837C836B8307E410E089819A81B5
:10152000982F8827990F9C0140E050E080E094E2DA
:10153000A4EFB0E0BC01CD010E94450DDA01C90164
:10154000F801808384E490E024E430E0F901208114
:101550002264FC01208328960FB6F894DEBF0FBEEC
:10156000CDBFDF91CF911F910F9108950F931F93DE
:10157000CF93DF9300D000D0CDB7DEB79C838B83B1
:1015800082EB90E0FC018081882F90E00E94B80DF2
:101590001A8219821BC089819A81880F991F2B8119
:1015A0003C818901080F191F0E94B30D8370907848
:1015B000992324F401978C6F9F6F0196F801918312
:1015C000808389819A8101969A83898389819A810E
:1015D0000F970CF30F900F900F900F90DF91CF911A
:1015E0001F910F910895CF93DF93CDB7DEB789E2B6
:1015F00090E0FC018081882F90E080719927892BF1
:1016000031F58091060190910701019690930701B1
:101610008093060180910601909107014F97A0F1F8
:101620008091160190911701892B61F481E090E07F
:1016300090931F0180931E0181E090E09093170129
:101640008093160110920701109206011DC080912F
:101650000E0190910F01019690930F0180930E015E
:1016600080910E0190910F014F9770F080911601BB
:1016700090911701019721F4109217011092160111
:1016800010920F0110920E0189E290E0FC0180811E
:10169000882F90E080729927892B31F5809108017D
:1016A000909109010196909309018093080180911E
:1016B0000801909109014F97A0F180911801909134
:1016C0001901892B61F481E090E0909321018093CE
:1016D000200181E090E0909319018093180110920D
:1016E0000901109208011DC0809110019091110113
:1016F00001969093110180931001809110019091B7
:1017000011014F9770F08091180190911901019784
:1017100021F41092190110921801109211011092E7
:10172000100189E290E0FC018081882F90E08870B0
:101730009927892B31F580910A0190910B0101962F
:1017400090930B0180930A0180910A0190910B0103
:101750004F97A0F180911A0190911B01892B61F4A0
:1017600081E090E0909323018093220181E090E05A
:1017700090931B0180931A0110920B0110920A01A1
:101780001DC0809112019091130101969093130155
:101790008093120180911201909113014F9770F084
:1017A00080911A0190911B01019721F410921B0165
:1017B00010921A01109213011092120189E290E026
:1017C000FC018081882334F180910C0190910D01FE
:1017D000019690930D0180930C0180910C019091E2
:1017E0000D014F97A0F180911C0190911D01892B53
:1017F00061F481E090E0909325018093240181E0E1
:1018000090E090931D0180931C0110920D011092A5
:101810000C011DC0809114019091150101969093C7
:1018200015018093140180911401909115014F9737
:1018300070F080911C0190911D01019721F410928C
:101840001D0110921C011092150110921401DF91DC
:10185000CF9108950E945E0C08F481E008950E94E3
:101860008A0C88F09F5798F0B92F9927B751B0F09C
:10187000E1F0660F771F881F991F1AF0BA95C9F714
:1018800014C0B13091F00E94A40CB1E008950C9402
:10189000A40C672F782F8827B85F39F0B93FCCF3B5
:1018A000869577956795B395D9F73EF49095809591
:1018B000709561957F4F8F4F9F4F0895990F000846
:1018C000550FAA0BE0E8FEEF16161706E807F90712
:1018D000C0F012161306E407F50798F0621B730BAD
:1018E000840B950B39F40A2661F0232B242B252B2E
:1018F00021F408950A2609F4A140A6958FEF811DD1
:10190000811D089557FD9058440F551F59F05F3FB2
:1019100071F04795880F97FB991F61F09F3F79F011
:1019200087950895121613061406551FF2CF469593
:10193000F1DF08C0161617061806991FF1CF869515
:101940007105610508940895E894BB2766277727F9
:10195000CB0197F908950E945E0C08F48FEF08956B
:101960000E94C30C0C94340D0E94260D38F00E9486
:101970002D0D20F0952311F00C941D0D0C94230DCA
:1019800011240C94A50C0E94820C70F3959FC1F356
:10199000950F50E0551F629FF001729FBB27F00D1D
:1019A000B11D639FAA27F00DB11DAA1F649F662772
:1019B000B00DA11D661F829F2227B00DA11D621FC1
:1019C000739FB00DA11D621F839FA00D611D221F7B
:1019D000749F3327A00D611D231F849F600D211D5F
:1019E000822F762F6A2F11249F5750409AF0F1F0E2
:1019F00088234AF0EE0FFF1FBB1F661F771F881F4B
:101A000091505040A9F79E3F510580F00C941D0D58
:101A10000C94A50C5F3FE4F3983ED4F3869577953C
:101A20006795B795F795E7959F5FC1F7FE2B880FF0
:101A3000911D9695879597F9089597F99F6780E886
:101A400070E060E008959FEF80EC089500240A9410
:101A50001616170618060906089500240A94121689
:101A60001306140605060895092E0394000C11F4BC
:101A7000882352F0BB0F40F4BF2B11F460FF04C069
:101A80006F5F7F4F8F4F9F4F0895A1E21A2EAA1BC1
:101A9000BB1BFD010DC0AA1FBB1FEE1FFF1FA2171E
:101AA000B307E407F50720F0A21BB30BE40BF50B1B
:101AB000661F771F881F991F1A9469F760957095A4
:101AC000809590959B01AC01BD01CF0108958F9247
:101AD0009F92AF92BF92CF92DF92EF92FF92CF93FD
:101AE000DF93EC01688179818A819B8161157105A1
:101AF0008105910521F464E279ED8BE597E02DE114
:101B000033EF41E050E00E94C30D49015A019B01AF
:101B1000AC01A7EAB1E40E94E20D6B017C01ACEEDE
:101B2000B4EFA50194010E94F00DDC01CB018C0DF6
:101B30009D1DAE1DBF1DB7FF03C00197A109B04891
:101B400088839983AA83BB839F77DF91CF91FF908E
:101B5000EF90DF90CF90BF90AF909F908F900895BF
:101B60000E94670D089580E091E00E94670D08953E
:101B7000A0E0B0E08093000190930101A0930201E6
:101B8000B09303010895052E97FB1EF400940E9464
:101B9000DA0D57FD07D00E94450D07FC03D04EF427
:101BA0000C94DA0D50954095309521953F4F4F4F4D
:101BB0005F4F089590958095709561957F4F8F4FF9
:101BC0009F4F08950E94F50DA59F900DB49F900D15
:101BD000A49F800D911D11240895B7FF0C94E20D70
:101BE0000E94E20D821B930B0895A29FB001B39F48
:101BF000C001A39F700D811D1124911DB29F700D16
:0C1C0000811D1124911D0895F894FFCF60
:061C0C00010000000100D0
:00000001FF
