:100000000C9434000C9446000C9446000C9446006A
:100010000C9446000C9446000C9446000C94460048
:100020000C9446000C9446000C9446000C94460038
:100030000C9446000C9446000C94C5000C944600A9
:100040000C9446000C9446000C9446000C94460018
:100050000C9446000C9446000C9446000C94460008
:100060000C9446000C94460011241FBECFEFD8E03C
:10007000DEBFCDBF21E0A0E0B1E001C01D92A23102
:10008000B207E1F70E9448000C949D020C94000016
:10009000CF93DF9300D01F92CDB7DEB70E94A000B0
:1000A00089831B821A8261E080E895E20E94E40065
:1000B00062E070E083E090E00E940A02805D0E94AE
:1000C0003C018A81882F90E00E945F010E94A0007D
:1000D0008B8399818B81981781F189818130B1F46B
:1000E0008B81833099F48A818F3F79F08A818F5F89
:1000F0008A838A81882F90E00E945F018DE00E94B0
:100100003C018AE00E943C0118C017C08981882305
:10011000A1F48B81823089F48A81882371F08A81ED
:1001200081508A838A81882F90E00E945F018DE050
:100130000E943C018AE00E943C018B818983C6CFEA
:10014000CF93DF931F92CDB7DEB7198286E290E09E
:10015000FC018081882F90E081709927892B19F00C
:1001600089818260898386E290E0FC018081882F0A
:1001700090E082709927892B19F0898181608983A9
:1001800089810F90DF91CF9108951F920F92009077
:100190005F000F9211248F939F93CF93DF93CDB77E
:1001A000DEB78091020190910301019690930301C3
:1001B00080930201DF91CF919F918F910F900092D8
:1001C0005F000F901F9018950F931F93CF93DF93AD
:1001D000CDB7DEB727970FB6F894DEBF0FBECDBF01
:1001E0009A8389836B8304EC10E089819A819695C8
:1001F0008795CC01A0E0B0E0805C9D4BA04FBF4F45
:1002000029813A81990140E050E0BC01CD010E9472
:100210005802DA01C9010197F8019183808381ECCA
:1002200090E021EC30E0F90120812861FC0120837D
:100230008B81813051F482EC90E022EC30E0F901C6
:100240002081277FFC0120830CC08B81823049F400
:1002500082EC90E022EC30E0F90120812860FC0182
:10026000208327960FB6F894DEBF0FBECDBFDF9177
:10027000CF911F910F910895CF93DF931F92CDB728
:10028000DEB7898386EC90E02981FC0120830000A1
:1002900080EC90E0FC018081882F90E080749927A9
:1002A000892BB1F380EC90E020EC30E0F901208163
:1002B0002064FC0120830F90DF91CF910895CF93AC
:1002C000DF93CDB7DEB7AC970FB6F894DEBF0FBEA5
:1002D000CDBF9AA789A71B861C861D861E862AE18C
:1002E000CE010F96FC01322F11923A95E9F789A5BC
:1002F0009AA59A8389831C821B8289819A81892B82
:1003000021F481E090E09C838B830FC08B819C81E2
:1003100001969C838B8389819A812AE030E0B90120
:100320000E944402CB019A83898389819A81892B17
:1003300069F71E821D8243C049A55AA59A01ADECFA
:10034000BCEC0E947A02969587959695879596952E
:100350008795880F991F9C01220F331F220F331F8F
:10036000820F931FFA01E81BF90BCF019A87898747
:1003700089A59AA59C01ADECBCEC0E947A029695E9
:10038000879596958795969587959AA789A78D8144
:100390009E819C01209530958B819C81820F931FBB
:1003A000298540E3420F9E01255F3F4F820F931F37
:1003B000FC0140838D819E8101969E838D832D81DA
:1003C0003E818B819C81281739070CF4B5CF1886A4
:1003D0001F8210C09E01255F3F4F8F819885820F3D
:1003E000931FFC0180810E943C018F8198850196BA
:1003F00098878F832B813C818F8198858217930703
:1004000048F3AC960FB6F894DEBF0FBECDBFDF91B8
:10041000CF910895CF93DF93CDB7DEB728970FB66E
:10042000F894DEBF0FBECDBF9E838D8378876F8328
:100430001A8219828F819885892B21F481E090E0BE
:100440009A8389831C821B820DC08D819E812981A4
:100450003A81820F931F9A8389838B819C810196B5
:100460009C838B832F8138858B819C818217930796
:1004700060F389819A8128960FB6F894DEBF0FBE8B
:10048000CDBFDF91CF91089597FB072E16F400940E
:1004900007D077FD09D00E94890207FC05D03EF401
:1004A000909581959F4F0895709561957F4F089520
:1004B000A1E21A2EAA1BBB1BFD010DC0AA1FBB1F68
:1004C000EE1FFF1FA217B307E407F50720F0A21BDA
:1004D000B30BE40BF50B661F771F881F991F1A9447
:1004E00069F760957095809590959B01AC01BD0171
:1004F000CF010895A29FB001B39FC001A39F700DCB
:10050000811D1124911DB29F700D811D1124911D1B
:100510000895AA1BBB1B51E107C0AA1FBB1FA6174A
:10052000B70710F0A61BB70B881F991F5A95A9F79C
:0E05300080959095BC01CD010895F894FFCF01
:00000001FF
