:100000000C9434000C9449000C9449000C94490061
:100010000C9449000C9449000C9449000C9449003C
:100020000C9449000C9449000C9449000C9449002C
:100030000C9449000C9449000C9449000C9449001C
:100040000C9449000C9449000C9449000C9449000C
:100050000C9449000C9449000C9449000C944900FC
:100060000C9449000C94490011241FBECFEFD8E036
:10007000DEBFCDBF11E0A0E0B1E0E2E1F3E002C0FD
:1000800005900D92A432B107D9F70E94C2000C94DA
:1000900087010C94000087E690E09093C500809360
:1000A000C400E1ECF0E0808188618083E2ECF0E064
:1000B00080818860808308958093C600E0ECF0E042
:1000C000808186FFFDCFE0ECF0E08081806480835A
:1000D0000895CF92DF92EF92FF920F931F93CF93E9
:1000E000DF936C01FB01CB013097E9F100E010E0F8
:1000F0002AE030E00F5F1F4FB9010E945001CB0191
:100100000097C1F71016110684F5E601C00FD11F44
:1001100076019F01ADECBCEC0E946401AC015695E8
:1001200047955695479556954795CA01880F991F4B
:10013000440F551F440F551F440F551F480F591F9B
:10014000CF01841B950BAC010E946401FC01F69564
:10015000E795F695E795F695E795405D4A93CE15B8
:10016000DF05B9F602C000E010E0F601E00FF11F74
:100170001082DF91CF911F910F91FF90EF90DF9050
:10018000CF900895CF93DF93CDB7DEB7AA970FB680
:10019000F894DEBF0FBECDBF0E944B008CE1E0E0C3
:1001A000F1E0DE01119601900D928A95E1F786E06B
:1001B000EDE1F1E0DE015D9601900D928A95E1F7A7
:1001C0001BA21CA21DA21EA21FA218A619A61AA637
:1001D0005C9A20E030E0C12CD12C80E090E0612CD2
:1001E000712C512C412C7E014DE1E40EF11C4E018D
:1001F000E3E28E0E911C5E01FBE2AF0EB11C3324D4
:100200003394212C05C0852D942D02C0C52CD42CEF
:100210004C9936C001968B309105D0F321153105EC
:1002200091F74FEF641A740A8E010F5F1F4FF801A8
:1002300081918F010E945C000E151F05C1F7B3016B
:10024000C4010E9469008401F80181918F010E941C
:100250005C000A151B05C1F78701F80181918F0128
:100260000E945C0008151905C1F78DE00E945C0032
:100270008AE00E945C00232D322D852D942DC8CF5D
:10028000FFEFCF1ADF0A4BE0C416D10408F2213089
:10029000310509F0BBCF252D342DC52CD42CB8CF7A
:1002A00097FB072E16F4009407D077FD09D00E9423
:1002B000730107FC05D03EF4909581959F4F0895FA
:1002C000709561957F4F0895A29FB001B39FC001C3
:1002D000A39F700D811D1124911DB29F700D811D72
:1002E0001124911D0895AA1BBB1B51E107C0AA1F31
:1002F000BB1FA617B70710F0A61BB70B881F991FC7
:100300005A95A9F780959095BC01CD010895F89470
:02031000FFCF1D
:1003120054686520627574746F6E20686173206220
:1003220065656E2070726573736564200020746960
:040332006D65730082
:00000001FF
