:100000000C9434000C9446000C9446000C9446006A
:100010000C9446000C9446000C9446000C94460048
:100020000C9446000C9446000C9446000C94460038
:100030000C9446000C9446000C9487000C944600E7
:100040000C9446000C9446000C9446000C94460018
:100050000C9446000C9446000C9446000C94460008
:100060000C9446000C94460011241FBECFEFD8E03C
:10007000DEBFCDBF21E0A0E0B1E001C01D92A23003
:10008000B207E1F70E9448000C9470010C94000044
:10009000CF93DF931F92CDB7DEB762E080E895E2A1
:1000A0000E94C1000E945F000E943C01898388EE8B
:1000B00093E00E94A60089810E941901F5CFCF9399
:1000C000DF93CDB7DEB784E490E024E430E0F901BB
:1000D00020812260FC01208387E490E02AEFFC016C
:1000E00020838EE690E02EE630E0F9012081226048
:1000F000FC012083789485E490E025E430E0F90168
:1001000020812360FC012083DF91CF9108951F920D
:100110000F9200905F000F9211248F939F93CF93C3
:10012000DF93CDB7DEB78091000190910101019678
:100130009093010180930001DF91CF919F918F9166
:100140000F9000925F000F901F901895CF93DF9350
:1001500000D0CDB7DEB79A83898310920101109247
:100160000001000080910001909101019C018981B2
:100170009A8128173907B0F30F900F90DF91CF9134
:1001800008950F931F93CF93DF93CDB7DEB72797D3
:100190000FB6F894DEBF0FBECDBF9A8389836B8301
:1001A00004EC10E089819A8196958795CC01A0E0B6
:1001B000B0E0805C9D4BA04FBF4F29813A819901EF
:1001C00040E050E0BC01CD010E944E01DA01C901BE
:1001D0000197F8019183808381EC90E021EC30E07D
:1001E000F90120812861FC0120838B81813051F449
:1001F00082EC90E022EC30E0F9012081277FFC01C5
:1002000020830CC08B81823049F482EC90E022EC98
:1002100030E0F90120812860FC01208327960FB689
:10022000F894DEBF0FBECDBFDF91CF911F910F912C
:100230000895CF93DF931F92CDB7DEB7898386EC05
:1002400090E02981FC012083000080EC90E0FC011B
:100250008081882F90E080749927892BB1F380ECFE
:1002600090E020EC30E0F90120812064FC01208343
:100270000F90DF91CF910895CF93DF93CDB7DEB785
:10028000000080EC90E0FC0180818823D4F786ECAC
:1002900090E0FC018081DF91CF910895A1E21A2EB8
:1002A000AA1BBB1BFD010DC0AA1FBB1FEE1FFF1F1A
:1002B000A217B307E407F50720F0A21BB30BE40B6A
:1002C000F50B661F771F881F991F1A9469F76095B1
:1002D0007095809590959B01AC01BD01CF0108956B
:0402E000F894FFCFC0
:00000001FF
