S00D000064656C61792E7372656308
S11300000C9434000C9446000C9446000C94460066
S11300100C9446000C9446000C9446000C94460044
S11300200C9446000C9446000C9446000C94460034
S11300300C9446000C9446000C948A000C944600E0
S11300400C9446000C9446000C9446000C94460014
S11300500C9446000C9446000C9446000C94460004
S11300600C9446000C94460011241FBECFEFD8E038
S1130070DEBFCDBF21E0A0E0B1E001C01D92A230FF
S1130080B207E1F70E9448000C94C4000C940000ED
S1130090CF93DF93CDB7DEB70E94620084E290E095
S11300A021E0FC01208385E290E025E230E0F901C3
S11300B0308121E02327FC01208388EE93E00E9415
S11300C0A900F1CFCF93DF93CDB7DEB784E490E0FE
S11300D024E430E0F90120812260FC01208387E4DC
S11300E090E02AEFFC0120838EE690E02EE630E0DB
S11300F0F90120812260FC012083789485E490E05A
S113010025E430E0F90120812360FC012083DF91A4
S1130110CF9108951F920F9200905F000F921124C7
S11301208F939F93CF93DF93CDB7DEB78091000178
S11301309091010101969093010180930001DF9158
S1130140CF919F918F910F9000925F000F901F901D
S11301501895CF93DF9300D0CDB7DEB79A83898308
S11301601092010110920001000080910001909111
S113017001019C0189819A8128173907B0F30F90F6
S10F01800F90DF91CF910895F894FFCF09
S9030000FC
