S0130000726F74456E636F646572322E73726563CA
S11300000C9434000C9477000C94B2000C944600C9
S11300100C9446000C9446000C9446000C94460044
S11300200C9446000C9446000C9446000C94460034
S11300300C9446000C9446000C94ED000C9446007D
S11300400C9446000C9446000C9446000C94460014
S11300500C9446000C9446000C9446000C94460004
S11300600C9446000C94460011241FBECFEFD8E038
S1130070DEBFCDBF21E0A0E0B1E001C01D92A231FE
S1130080B207E1F70E9448000C94A9010C94000007
S1130090CF93DF93CDB7DEB78AE290E02AE230E077
S11300A0F9012081237FFC0120838BE290E02BE285
S11300B030E0F90120812C60FC01208389E690E086
S11300C029E630E0F90120812A60FC0120838DE3D8
S11300D090E02DE330E0F90120812360FC012083CE
S11300E0789461E080E895E20E940C01FFCF1F92B2
S11300F00F9200905F000F9211242F933F934F9320
S11301005F936F937F938F939F93AF93BF93EF937B
S1130110FF93CF93DF93CDB7DEB789E290E0FC0184
S11301208081882F90E083709927892B21F08BE2BE
S11301300E94640103C08DE20E946401DF91CF91AB
S1130140FF91EF91BF91AF919F918F917F916F91AB
S11301505F914F913F912F910F9000925F000F900C
S11301601F9018951F920F9200905F000F92112418
S11301702F933F934F935F936F937F938F939F93AB
S1130180AF93BF93EF93FF93CF93DF93CDB7DEB7D6
S113019089E290E0FC018081882F90E082709927A9
S11301A0892B21F08BE20E94640103C08DE20E943E
S11301B06401DF91CF91FF91EF91BF91AF919F9136
S11301C08F917F916F915F914F913F912F910F90FC
S11301D000925F000F901F9018951F920F9200904D
S11301E05F000F9211248F939F93CF93DF93CDB72A
S11301F0DEB780910201909103010196909303016F
S113020080930201DF91CF919F918F910F90009283
S11302105F000F901F9018950F931F93CF93DF9358
S1130220CDB7DEB727970FB6F894DEBF0FBECDBFAC
S11302309A8389836B8304EC10E089819A81969573
S11302408795CC01A0E0B0E0805C9D4BA04FBF4FF0
S113025029813A81990140E050E0BC01CD010E941E
S11302608701DA01C9010197F8019183808381EC48
S113027090E021EC30E0F90120812861FC01208329
S11302808B81813051F482EC90E022EC30E0F90172
S11302902081277FFC0120830CC08B81823049F4AC
S11302A082EC90E022EC30E0F90120812860FC012E
S11302B0208327960FB6F894DEBF0FBECDBFDF9123
S11302C0CF911F910F910895CF93DF931F92CDB7D4
S11302D0DEB7898386EC90E02981FC01208300004D
S11302E080EC90E0FC018081882F90E08074992755
S11302F0892BB1F380EC90E020EC30E0F90120810F
S11303002064FC0120830F90DF91CF910895A1E236
S11303101A2EAA1BBB1BFD010DC0AA1FBB1FEE1F7B
S1130320FF1FA217B307E407F50720F0A21BB30BC6
S1130330E40BF50B661F771F881F991F1A9469F742
S113034060957095809590959B01AC01BD01CF019E
S10903500895F894FFCFAC
S9030000FC
