:100000000C9434000C943E000C943E000C943E0082
:100010000C943E000C943E000C943E000C943E0068
:100020000C943E000C943E000C943E000C943E0058
:100030000C943E000C943E000C943E000C943E0048
:100040000C943E000C943E000C943E000C943E0038
:100050000C943E000C943E000C943E000C943E0028
:100060000C943E000C943E0011241FBECFEFD8E04C
:10007000DEBFCDBF0E944D000C946B000C940000BD
:100080008093C600E0ECF0E0808186FFFDCFE0ECDD
:10009000F0E0808180648083089587E690E090930B
:1000A000C5008093C400E1ECF0E08081886080832B
:1000B000E2ECF0E0808188608083C1E48C2F0E94B4
:1000C0004000CF5FCB35D1F78AE00E9440008DE041
:0A00D0000E944000F2CFF894FFCF29
:00000001FF
