:100000000C9434000C9449000C9449000C94490061
:100010000C9449000C9449000C9449000C9449003C
:100020000C9449000C9449000C9449000C9449002C
:100030000C9449000C9449000C9449000C9449001C
:100040000C9449000C9449000C9449000C9449000C
:100050000C9449000C9449000C9449000C944900FC
:100060000C9449000C94490011241FBECFEFD8E036
:10007000DEBFCDBF11E0A0E0B1E0E2E8F6E002C0F3
:1000800005900D92A232B107D9F70E944B000C9453
:100090003F030C940000CF93DF93CDB7DEB7EC970E
:1000A0000FB6F894DEBF0FBECDBF0E94240125E03D
:1000B000CE014796FC01322F11923A95E9F71A8248
:1000C000198281E2E0E0F1E0DE015C9601900D92A0
:1000D0008A95E1F781E290E098878F8380E090E055
:1000E000AAE7B4E489879A87AB87BC8720E030E031
:1000F0004AE755E469857A858B859C850E94730261
:10010000DC01CB018D879E87AF87B88B20E030E084
:1001100040E85FE36D857E858F8598890E94ED01BB
:1001200088232CF481E090E09A8B898B3FC020E0FB
:100130003FEF4FE757E46D857E858F8598890E9454
:100140006E0218164CF520E030E040E251E469857B
:100150007A858B859C850E947302DC01CB01BC01F2
:10016000CD010E94F201DC01CB019A8B898B0FC07B
:1001700080E991E09C8B8B8B8B899C890197F1F7AF
:100180009C8B8B8B89899A8901979A8B898B89891A
:100190009A89892B69F714C06D857E858F8598892A
:1001A0000E94F201DC01CB019A8B898B89899A89A3
:1001B0009E8B8D8B8D899E890197F1F79E8B8D8B00
:1001C00089819A8101969A8389831C821B8210C03F
:1001D0009E01245E3F4F8B819C81820F931FFC0107
:1001E00080810E9444018B819C8101969C838B833A
:1001F0002B813C818F8198852817390748F3298105
:100200003A81CE014796B9010E9467011E821D8284
:1002100010C09E01295E3F4F8D819E81820F931FEA
:10022000FC0180810E9444018D819E8101969E8304
:100230008D838D819E81059764F38AE00E9444013D
:100240008DE00E9444014ACFCF93DF93CDB7DEB754
:1002500084EC90E027E630E0FC013183208381ECE0
:1002600090E021EC30E0F90120812861FC0120833D
:1002700082EC90E022EC30E0F90120812860FC0162
:100280002083DF91CF910895CF93DF931F92CDB755
:10029000DEB7898386EC90E02981FC012083000091
:1002A00080EC90E0FC018081882F90E08074992799
:1002B000892BB1F380EC90E020EC30E0F901208153
:1002C0002064FC0120830F90DF91CF910895CF939C
:1002D000DF93CDB7DEB72E970FB6F894DEBF0FBE13
:1002E000CDBF9A8789877C876B871C821B828B8511
:1002F0009C859E838D830FC08B819C8101969C83FE
:100300008B838D819E812AE030E0B9010E94080331
:10031000CB019E838D838D819E81892B69F71A8203
:10032000198242C04B855C859A01ADECBCEC0E9401
:100330001C03969587959695879596958795880F32
:10034000991F9C01220F331F220F331F820F931F0F
:100350009A01281B390BC90198878F838B859C854F
:100360009C01ADECBCEC0E941C039695879596957C
:100370008795969587959C878B8789819A819C0123
:10038000209530958B819C81820F931F9C018985DC
:100390009A85820F931F2F81205DFC012083898124
:1003A0009A8101969A83898329813A818B819C81E4
:1003B000281739070CF4B6CF8B819C8129853A85A3
:1003C000820F931FFC0110822E960FB6F894DEBFA9
:1003D0000FBECDBFDF91CF9108950E94210208F496
:1003E00081E008950E944D0288F09F5798F0B92F40
:1003F0009927B751B0F0E1F0660F771F881F991F5A
:100400001AF0BA95C9F714C0B13091F00E94670292
:10041000B1E008950C946702672F782F8827B85FA2
:1004200039F0B93FCCF3869577956795B395D9F7B1
:100430003EF490958095709561957F4F8F4F9F4FBB
:100440000895990F0008550FAA0BE0E8FEEF161665
:100450001706E807F907C0F012161306E407F507B8
:1004600098F0621B730B840B950B39F40A2661F02C
:10047000232B242B252B21F408950A2609F4A140CF
:10048000A6958FEF811D811D089557FD9058440F4B
:10049000551F59F05F3F71F04795880F97FB991FE3
:1004A00061F09F3F79F087950895121613061406A0
:1004B000551FF2CF4695F1DF08C01616170618062D
:1004C000991FF1CF86957105610508940895E89408
:1004D000BB2766277727CB0197F908950E94210251
:1004E00008F48FEF08950E9486020C94F7020E9490
:1004F000E90238F00E94F00220F0952311F00C94EC
:10050000E0020C94E60211240C9468020E94450259
:1005100070F3959FC1F3950F50E0551F629FF00156
:10052000729FBB27F00DB11D639FAA27F00DB11D6F
:10053000AA1F649F6627B00DA11D661F829F2227F8
:10054000B00DA11D621F739FB00DA11D621F839F7F
:10055000A00D611D221F749F3327A00D611D231F55
:10056000849F600D211D822F762F6A2F11249F57A3
:1005700050409AF0F1F088234AF0EE0FFF1FBB1FA6
:10058000661F771F881F91505040A9F79E3F510565
:1005900080F00C94E0020C9468025F3FE4F3983E14
:1005A000D4F3869577956795B795F795E7959F5F0F
:1005B000C1F7FE2B880F911D9695879597F90895A1
:1005C00097F99F6780E870E060E008959FEF80EC06
:1005D000089500240A9416161706180609060895A9
:1005E00000240A9412161306140605060895092E0F
:1005F0000394000C11F4882352F0BB0F40F4BF2B7E
:1006000011F460FF04C06F5F7F4F8F4F9F4F0895BD
:1006100097FB072E16F4009407D077FD09D00E94AF
:100620002B0307FC05D03EF4909581959F4F0895CC
:10063000709561957F4F0895A29FB001B39FC0014F
:10064000A39F700D811D1124911DB29F700D811DFE
:100650001124911D0895AA1BBB1B51E107C0AA1FBD
:10066000BB1FA617B70710F0A61BB70B881F991F53
:100670005A95A9F780959095BC01CD010895F894FD
:02068000FFCFAA
:100682005365636F6E64732073696E63652074686B
:10069200652070726F6772616D2073746172743A53
:0206A200200036
:00000001FF
