:100000000C9444000C9461000C9461000C94610009
:100010000C9461000C9461000C9461000C946100DC
:100020000C9461000C9461000C9461000C946100CC
:100030000C9461000C9461000C942B020C946100F0
:100040000C9461000C9461000C9461000C946100AC
:100050000C9461000C9461000C9461000C9461009C
:100060000C9461000C94610070007D0082008D0092
:100070009800A100AC00B900C000CF00DC00E9008E
:10008000F400FD000801130111241FBECFEFD8E0DA
:10009000DEBFCDBF11E0A0E0B1E0E6E0F5E002C0D8
:1000A00005900D92A430B107D9F721E0A4E0B1E0AA
:1000B00001C01D92A831B207E1F70E9439010C94EA
:1000C00081020C94000025B12F6325B95F9A80311D
:1000D000910508F0B1C0FC01EC5CFF4F0C947B0271
:1000E0005F985F9A2898289A2998299A2A982A9A94
:1000F0002B982B9A2C982C9A08952898289A29980E
:10010000299A08955F985F9A2898289A2A982A9A97
:100110002B982B9A2D982D9A08955F985F9A28987E
:10012000289A2998299A2A982A9A2D982D9A0895DA
:100130002898289A2998299A2C982C9A2D982D9AA3
:1001400008955F985F9A2998299A2A982A9A2C9854
:100150002C9A2D982D9A08955F985F9A2998299A3C
:100160002A982A9A2B982B9A2C982C9A2D982D9A6B
:1001700008955F985F9A2898289A2998299A08954F
:100180005F985F9A2898289A2998299A2A982A9AF3
:100190002B982B9A2C982C9A2D982D9A08955F982D
:1001A0005F9A2898289A2998299A2A982A9A2C9806
:1001B0002C9A2D982D9A08955F985F9A2898289ADE
:1001C0002998299A2B982B9A2C982C9A2D982D9A0D
:1001D00008952998299A2A982A9A2B982B9A2C982C
:1001E0002C9A2D982D9A08955F985F9A2A982A9AAA
:1001F0002B982B9A2C982C9A08952898289A29980D
:10020000299A2A982A9A2B982B9A2D982D9A0895F4
:100210005F985F9A2A982A9A2B982B9A2C982C9A56
:100220002D982D9A08955F985F9A2B982B9A2C9869
:100230002C9A2D982D9A08952D982D9A089584B56D
:100240008E7F84BD84B5826084BD8AEF87BDEEE673
:10025000F0E0808182608083789485B5837F85BD5E
:1002600085B5836085BD16BC1092170110921601EA
:100270000895579A5F9A84B18F6384B985B18F636B
:1002800085B98BB180668BB98AB18AB90E941F018A
:1002900001E010E00F2EFCE2AF2EBB24B394F02D52
:1002A000C4E6D0E00F2EFEEECF2EF2E0DF2EF02DD2
:1002B0000F2EF4EFEF2EFF24F394F02D0F2EF8EE17
:1002C0008F2EF3E09F2EF02D0F2EF8EC6F2E712C59
:1002D000F02D4D9924C0809110019091110101964B
:1002E00090931101809310010B9790F180910C0174
:1002F00090910D01892B71F4809100019091010181
:1003000021E08227909301018093000110930D0159
:1003100000930C01109211011092100119C08091EC
:1003200008019091090101969093090180930801B9
:100330000B9770F080910C0190910D01019721F4C1
:1003400010920D0110920C011092090110920801F7
:100350004E992BC080910E0190910F0101969093C0
:100360000F0180930E010B97C8F180910A019091C3
:100370000B01892BA9F4809104019091050185302E
:10038000910529F4109205011092040105C001960F
:10039000909305018093040110930B0100930A01CF
:1003A00010920F0110920E0119C0809106019091D8
:1003B0000701019690930701809306010B9770F057
:1003C00080910A0190910B01019721F410920B0189
:1003D00010920A0110920701109206018091040107
:1003E0009091050182309105B9F028F4009751F001
:1003F000019769F025C084309105C1F090F0059710
:10040000D1F01EC0D0930301C09302011DC07092B1
:1004100003016092020118C0B0920301A092020190
:1004200013C0F0920301E09202010EC0D0920301CA
:10043000C092020109C0909203018092020104C09F
:10044000D0930301C0930201809112019091130196
:100450000E9463003ECF1F920F920FB60F9211249D
:100460002F933F938F939F93809114019091150147
:10047000019690931501809314012091020130910F
:1004800003018217930770F180910001909101019F
:10049000892B91F080911201909113018F30910579
:1004A00029F4109213011092120118C00196909332
:1004B00013018093120112C08091120190911301D7
:1004C000009739F48FE090E090931301809312012C
:1004D00005C00197909313018093120110921501AA
:1004E000109214019F918F913F912F910F900FBE09
:1004F0000F901F901895EE0FFF1F0590F491E02DBF
:060500000994F894FFCFFE
:040506000100C80028
:00000001FF
